{
  "contractName": "Token",
  "abi": [
    {
      "inputs": [
        {
          "internalType": "string",
          "name": "tokenName",
          "type": "string"
        },
        {
          "internalType": "string",
          "name": "tokenVersion",
          "type": "string"
        },
        {
          "internalType": "string",
          "name": "tokenSymbol",
          "type": "string"
        },
        {
          "internalType": "uint8",
          "name": "tokenDecimals",
          "type": "uint8"
        },
        {
          "internalType": "uint256",
          "name": "tokenTotalSupply",
          "type": "uint256"
        }
      ],
      "stateMutability": "nonpayable",
      "type": "constructor"
    },
    {
      "anonymous": false,
      "inputs": [
        {
          "indexed": true,
          "internalType": "address",
          "name": "owner",
          "type": "address"
        },
        {
          "indexed": true,
          "internalType": "address",
          "name": "spender",
          "type": "address"
        },
        {
          "indexed": false,
          "internalType": "uint256",
          "name": "value",
          "type": "uint256"
        }
      ],
      "name": "Approval",
      "type": "event"
    },
    {
      "anonymous": false,
      "inputs": [
        {
          "indexed": true,
          "internalType": "address",
          "name": "authorizer",
          "type": "address"
        },
        {
          "indexed": true,
          "internalType": "bytes32",
          "name": "nonce",
          "type": "bytes32"
        }
      ],
      "name": "AuthorizationCanceled",
      "type": "event"
    },
    {
      "anonymous": false,
      "inputs": [
        {
          "indexed": true,
          "internalType": "address",
          "name": "authorizer",
          "type": "address"
        },
        {
          "indexed": true,
          "internalType": "bytes32",
          "name": "nonce",
          "type": "bytes32"
        }
      ],
      "name": "AuthorizationUsed",
      "type": "event"
    },
    {
      "anonymous": false,
      "inputs": [
        {
          "indexed": true,
          "internalType": "address",
          "name": "from",
          "type": "address"
        },
        {
          "indexed": true,
          "internalType": "address",
          "name": "to",
          "type": "address"
        },
        {
          "indexed": false,
          "internalType": "uint256",
          "name": "value",
          "type": "uint256"
        }
      ],
      "name": "Transfer",
      "type": "event"
    },
    {
      "inputs": [],
      "name": "CANCEL_AUTHORIZATION_TYPEHASH",
      "outputs": [
        {
          "internalType": "bytes32",
          "name": "",
          "type": "bytes32"
        }
      ],
      "stateMutability": "view",
      "type": "function"
    },
    {
      "inputs": [],
      "name": "DOMAIN_SEPARATOR",
      "outputs": [
        {
          "internalType": "bytes32",
          "name": "",
          "type": "bytes32"
        }
      ],
      "stateMutability": "view",
      "type": "function"
    },
    {
      "inputs": [],
      "name": "PERMIT_TYPEHASH",
      "outputs": [
        {
          "internalType": "bytes32",
          "name": "",
          "type": "bytes32"
        }
      ],
      "stateMutability": "view",
      "type": "function"
    },
    {
      "inputs": [],
      "name": "RECEIVE_WITH_AUTHORIZATION_TYPEHASH",
      "outputs": [
        {
          "internalType": "bytes32",
          "name": "",
          "type": "bytes32"
        }
      ],
      "stateMutability": "view",
      "type": "function"
    },
    {
      "inputs": [],
      "name": "TRANSFER_WITH_AUTHORIZATION_TYPEHASH",
      "outputs": [
        {
          "internalType": "bytes32",
          "name": "",
          "type": "bytes32"
        }
      ],
      "stateMutability": "view",
      "type": "function"
    },
    {
      "inputs": [
        {
          "internalType": "address",
          "name": "authorizer",
          "type": "address"
        },
        {
          "internalType": "bytes32",
          "name": "nonce",
          "type": "bytes32"
        }
      ],
      "name": "authorizationState",
      "outputs": [
        {
          "internalType": "bool",
          "name": "",
          "type": "bool"
        }
      ],
      "stateMutability": "view",
      "type": "function"
    },
    {
      "inputs": [
        {
          "internalType": "address",
          "name": "authorizer",
          "type": "address"
        },
        {
          "internalType": "bytes32",
          "name": "nonce",
          "type": "bytes32"
        },
        {
          "internalType": "uint8",
          "name": "v",
          "type": "uint8"
        },
        {
          "internalType": "bytes32",
          "name": "r",
          "type": "bytes32"
        },
        {
          "internalType": "bytes32",
          "name": "s",
          "type": "bytes32"
        }
      ],
      "name": "cancelAuthorization",
      "outputs": [],
      "stateMutability": "nonpayable",
      "type": "function"
    },
    {
      "inputs": [
        {
          "internalType": "address",
          "name": "owner",
          "type": "address"
        }
      ],
      "name": "nonces",
      "outputs": [
        {
          "internalType": "uint256",
          "name": "",
          "type": "uint256"
        }
      ],
      "stateMutability": "view",
      "type": "function"
    },
    {
      "inputs": [
        {
          "internalType": "address",
          "name": "owner",
          "type": "address"
        },
        {
          "internalType": "address",
          "name": "spender",
          "type": "address"
        },
        {
          "internalType": "uint256",
          "name": "value",
          "type": "uint256"
        },
        {
          "internalType": "uint256",
          "name": "deadline",
          "type": "uint256"
        },
        {
          "internalType": "uint8",
          "name": "v",
          "type": "uint8"
        },
        {
          "internalType": "bytes32",
          "name": "r",
          "type": "bytes32"
        },
        {
          "internalType": "bytes32",
          "name": "s",
          "type": "bytes32"
        }
      ],
      "name": "permit",
      "outputs": [],
      "stateMutability": "nonpayable",
      "type": "function"
    },
    {
      "inputs": [
        {
          "internalType": "address",
          "name": "from",
          "type": "address"
        },
        {
          "internalType": "address",
          "name": "to",
          "type": "address"
        },
        {
          "internalType": "uint256",
          "name": "value",
          "type": "uint256"
        },
        {
          "internalType": "uint256",
          "name": "validAfter",
          "type": "uint256"
        },
        {
          "internalType": "uint256",
          "name": "validBefore",
          "type": "uint256"
        },
        {
          "internalType": "bytes32",
          "name": "nonce",
          "type": "bytes32"
        },
        {
          "internalType": "uint8",
          "name": "v",
          "type": "uint8"
        },
        {
          "internalType": "bytes32",
          "name": "r",
          "type": "bytes32"
        },
        {
          "internalType": "bytes32",
          "name": "s",
          "type": "bytes32"
        }
      ],
      "name": "receiveWithAuthorization",
      "outputs": [],
      "stateMutability": "nonpayable",
      "type": "function"
    },
    {
      "inputs": [
        {
          "internalType": "address",
          "name": "from",
          "type": "address"
        },
        {
          "internalType": "address",
          "name": "to",
          "type": "address"
        },
        {
          "internalType": "uint256",
          "name": "value",
          "type": "uint256"
        },
        {
          "internalType": "uint256",
          "name": "validAfter",
          "type": "uint256"
        },
        {
          "internalType": "uint256",
          "name": "validBefore",
          "type": "uint256"
        },
        {
          "internalType": "bytes32",
          "name": "nonce",
          "type": "bytes32"
        },
        {
          "internalType": "uint8",
          "name": "v",
          "type": "uint8"
        },
        {
          "internalType": "bytes32",
          "name": "r",
          "type": "bytes32"
        },
        {
          "internalType": "bytes32",
          "name": "s",
          "type": "bytes32"
        }
      ],
      "name": "transferWithAuthorization",
      "outputs": [],
      "stateMutability": "nonpayable",
      "type": "function"
    },
    {
      "inputs": [],
      "name": "name",
      "outputs": [
        {
          "internalType": "string",
          "name": "",
          "type": "string"
        }
      ],
      "stateMutability": "view",
      "type": "function"
    },
    {
      "inputs": [],
      "name": "version",
      "outputs": [
        {
          "internalType": "string",
          "name": "",
          "type": "string"
        }
      ],
      "stateMutability": "view",
      "type": "function"
    },
    {
      "inputs": [],
      "name": "symbol",
      "outputs": [
        {
          "internalType": "string",
          "name": "",
          "type": "string"
        }
      ],
      "stateMutability": "view",
      "type": "function"
    },
    {
      "inputs": [],
      "name": "decimals",
      "outputs": [
        {
          "internalType": "uint8",
          "name": "",
          "type": "uint8"
        }
      ],
      "stateMutability": "view",
      "type": "function"
    },
    {
      "inputs": [],
      "name": "totalSupply",
      "outputs": [
        {
          "internalType": "uint256",
          "name": "",
          "type": "uint256"
        }
      ],
      "stateMutability": "view",
      "type": "function"
    },
    {
      "inputs": [
        {
          "internalType": "address",
          "name": "account",
          "type": "address"
        }
      ],
      "name": "balanceOf",
      "outputs": [
        {
          "internalType": "uint256",
          "name": "",
          "type": "uint256"
        }
      ],
      "stateMutability": "view",
      "type": "function"
    },
    {
      "inputs": [
        {
          "internalType": "address",
          "name": "owner",
          "type": "address"
        },
        {
          "internalType": "address",
          "name": "spender",
          "type": "address"
        }
      ],
      "name": "allowance",
      "outputs": [
        {
          "internalType": "uint256",
          "name": "",
          "type": "uint256"
        }
      ],
      "stateMutability": "view",
      "type": "function"
    },
    {
      "inputs": [
        {
          "internalType": "address",
          "name": "spender",
          "type": "address"
        },
        {
          "internalType": "uint256",
          "name": "amount",
          "type": "uint256"
        }
      ],
      "name": "approve",
      "outputs": [
        {
          "internalType": "bool",
          "name": "",
          "type": "bool"
        }
      ],
      "stateMutability": "nonpayable",
      "type": "function"
    },
    {
      "inputs": [
        {
          "internalType": "address",
          "name": "sender",
          "type": "address"
        },
        {
          "internalType": "address",
          "name": "recipient",
          "type": "address"
        },
        {
          "internalType": "uint256",
          "name": "amount",
          "type": "uint256"
        }
      ],
      "name": "transferFrom",
      "outputs": [
        {
          "internalType": "bool",
          "name": "",
          "type": "bool"
        }
      ],
      "stateMutability": "nonpayable",
      "type": "function"
    },
    {
      "inputs": [
        {
          "internalType": "address",
          "name": "recipient",
          "type": "address"
        },
        {
          "internalType": "uint256",
          "name": "amount",
          "type": "uint256"
        }
      ],
      "name": "transfer",
      "outputs": [
        {
          "internalType": "bool",
          "name": "",
          "type": "bool"
        }
      ],
      "stateMutability": "nonpayable",
      "type": "function"
    },
    {
      "inputs": [
        {
          "internalType": "address",
          "name": "spender",
          "type": "address"
        },
        {
          "internalType": "uint256",
          "name": "addedValue",
          "type": "uint256"
        }
      ],
      "name": "increaseAllowance",
      "outputs": [
        {
          "internalType": "bool",
          "name": "",
          "type": "bool"
        }
      ],
      "stateMutability": "nonpayable",
      "type": "function"
    },
    {
      "inputs": [
        {
          "internalType": "address",
          "name": "spender",
          "type": "address"
        },
        {
          "internalType": "uint256",
          "name": "subtractedValue",
          "type": "uint256"
        }
      ],
      "name": "decreaseAllowance",
      "outputs": [
        {
          "internalType": "bool",
          "name": "",
          "type": "bool"
        }
      ],
      "stateMutability": "nonpayable",
      "type": "function"
    }
  ],
  "bytecode": "0x60806040523480156200001157600080fd5b50604051620032513803806200325183398181016040528101906200003791906200044a565b84600690805190602001906200004f929190620002fa565b50836007908051906020019062000068929190620002fa565b50826008908051906020019062000081929190620002fa565b5081600960006101000a81548160ff021916908360ff160217905550620000b48585620000d760201b62000e9e1760201c565b600081905550620000cc33826200014560201b60201c565b5050505050620008a4565b6000804690507f8b73c3c69bb8fe3d512ecc4cf759cc79239f7b179b0ffacaa9a75d522b39400f848051906020012084805190602001208330604051602001620001269594939291906200059d565b6040516020818303038152906040528051906020012091505092915050565b600073ffffffffffffffffffffffffffffffffffffffff168273ffffffffffffffffffffffffffffffffffffffff161415620001b8576040517f08c379a0000000000000000000000000000000000000000000000000000000008152600401620001af90620005fa565b60405180910390fd5b620001d481600554620002e260201b62000f0a1790919060201c565b6005819055506200023381600360008573ffffffffffffffffffffffffffffffffffffffff1673ffffffffffffffffffffffffffffffffffffffff16815260200190815260200160002054620002e260201b62000f0a1790919060201c565b600360008473ffffffffffffffffffffffffffffffffffffffff1673ffffffffffffffffffffffffffffffffffffffff168152602001908152602001600020819055508173ffffffffffffffffffffffffffffffffffffffff16600073ffffffffffffffffffffffffffffffffffffffff167fddf252ad1be2c89b69c2b068fc378daa952ba7f163c4a11628f55a4df523b3ef83604051620002d691906200061c565b60405180910390a35050565b60008183620002f29190620006b1565b905092915050565b8280546200030890620007ad565b90600052602060002090601f0160209004810192826200032c576000855562000378565b82601f106200034757805160ff191683800117855562000378565b8280016001018555821562000378579182015b82811115620003775782518255916020019190600101906200035a565b5b5090506200038791906200038b565b5090565b5b80821115620003a65760008160009055506001016200038c565b5090565b6000620003c1620003bb846200066d565b62000639565b905082815260208101848484011115620003da57600080fd5b620003e784828562000777565b509392505050565b600082601f8301126200040157600080fd5b815162000413848260208601620003aa565b91505092915050565b6000815190506200042d8162000870565b92915050565b60008151905062000444816200088a565b92915050565b600080600080600060a086880312156200046357600080fd5b600086015167ffffffffffffffff8111156200047e57600080fd5b6200048c88828901620003ef565b955050602086015167ffffffffffffffff811115620004aa57600080fd5b620004b888828901620003ef565b945050604086015167ffffffffffffffff811115620004d657600080fd5b620004e488828901620003ef565b9350506060620004f78882890162000433565b92505060806200050a888289016200041c565b9150509295509295909350565b62000522816200070e565b82525050565b620005338162000722565b82525050565b620005448162000763565b82525050565b600062000559601f83620006a0565b91507f45524332303a206d696e7420746f20746865207a65726f2061646472657373006000830152602082019050919050565b62000597816200074c565b82525050565b600060a082019050620005b4600083018862000539565b620005c3602083018762000528565b620005d2604083018662000528565b620005e160608301856200058c565b620005f0608083018462000517565b9695505050505050565b6000602082019050818103600083015262000615816200054a565b9050919050565b60006020820190506200063360008301846200058c565b92915050565b6000604051905081810181811067ffffffffffffffff8211171562000663576200066262000841565b5b8060405250919050565b600067ffffffffffffffff8211156200068b576200068a62000841565b5b601f19601f8301169050602081019050919050565b600082825260208201905092915050565b6000620006be826200074c565b9150620006cb836200074c565b9250827fffffffffffffffffffffffffffffffffffffffffffffffffffffffffffffffff03821115620007035762000702620007e3565b5b828201905092915050565b60006200071b826200072c565b9050919050565b6000819050919050565b600073ffffffffffffffffffffffffffffffffffffffff82169050919050565b6000819050919050565b600060ff82169050919050565b600062000770826200074c565b9050919050565b60005b83811015620007975780820151818401526020810190506200077a565b83811115620007a7576000848401525b50505050565b60006002820490506001821680620007c657607f821691505b60208210811415620007dd57620007dc62000812565b5b50919050565b7f4e487b7100000000000000000000000000000000000000000000000000000000600052601160045260246000fd5b7f4e487b7100000000000000000000000000000000000000000000000000000000600052602260045260246000fd5b7f4e487b7100000000000000000000000000000000000000000000000000000000600052604160045260246000fd5b6200087b816200074c565b81146200088757600080fd5b50565b620008958162000756565b8114620008a157600080fd5b50565b61299d80620008b46000396000f3fe608060405234801561001057600080fd5b506004361061014d5760003560e01c80637ecebe00116100c3578063d505accf1161007c578063d505accf146103cc578063d9169487146103e8578063dd62ed3e14610406578063e3ee160e14610436578063e94a010214610452578063ef55bec6146104825761014d565b80637ecebe00146102e25780637f2eecc31461031257806395d89b4114610330578063a0cc6a681461034e578063a457c2d71461036c578063a9059cbb1461039c5761014d565b8063313ce56711610115578063313ce5671461020c5780633644e5151461022a578063395093511461024857806354fd4d50146102785780635a049a701461029657806370a08231146102b25761014d565b806306fdde0314610152578063095ea7b31461017057806318160ddd146101a057806323b872dd146101be57806330adf81f146101ee575b600080fd5b61015a61049e565b60405161016791906124ab565b60405180910390f35b61018a60048036038101906101859190611d23565b610530565b60405161019791906122d6565b60405180910390f35b6101a8610547565b6040516101b5919061264d565b60405180910390f35b6101d860048036038101906101d39190611abd565b610551565b6040516101e591906122d6565b60405180910390f35b6101f661061c565b60405161020391906122f1565b60405180910390f35b610214610643565b6040516102219190612668565b60405180910390f35b61023261065a565b60405161023f91906122f1565b60405180910390f35b610262600480360381019061025d9190611d23565b610660565b60405161026f91906122d6565b60405180910390f35b610280610677565b60405161028d91906124ab565b60405180910390f35b6102b060048036038101906102ab9190611cac565b610709565b005b6102cc60048036038101906102c79190611a58565b610991565b6040516102d9919061264d565b60405180910390f35b6102fc60048036038101906102f79190611a58565b6109da565b604051610309919061264d565b60405180910390f35b61031a610a23565b60405161032791906122f1565b60405180910390f35b610338610a47565b60405161034591906124ab565b60405180910390f35b610356610ad9565b60405161036391906122f1565b60405180910390f35b61038660048036038101906103819190611d23565b610afd565b60405161039391906122d6565b60405180910390f35b6103b660048036038101906103b19190611d23565b610b14565b6040516103c391906122d6565b60405180910390f35b6103e660048036038101906103e19190611bd2565b610b2b565b005b6103f0610ca3565b6040516103fd91906122f1565b60405180910390f35b610420600480360381019061041b9190611a81565b610cc7565b60405161042d919061264d565b60405180910390f35b610450600480360381019061044b9190611b0c565b610d4e565b005b61046c60048036038101906104679190611c70565b610d8b565b60405161047991906122d6565b60405180910390f35b61049c60048036038101906104979190611b0c565b610df3565b005b6060600680546104ad906127a4565b80601f01602080910402602001604051908101604052809291908181526020018280546104d9906127a4565b80156105265780601f106104fb57610100808354040283529160200191610526565b820191906000526020600020905b81548152906001019060200180831161050957829003601f168201915b5050505050905090565b600061053d338484610f20565b6001905092915050565b6000600554905090565b600061055e8484846110eb565b610611843361060c8560405180606001604052806028815260200161291b60289139600460008b73ffffffffffffffffffffffffffffffffffffffff1673ffffffffffffffffffffffffffffffffffffffff16815260200190815260200160002060003373ffffffffffffffffffffffffffffffffffffffff1673ffffffffffffffffffffffffffffffffffffffff168152602001908152602001600020546113799092919063ffffffff16565b610f20565b600190509392505050565b7f6e71edae12b1b97f4d1f60370fef10105fa2faae0126114a169c64845d6126c960001b81565b6000600960009054906101000a900460ff16905090565b60005481565b600061066d3384846113ce565b6001905092915050565b606060078054610686906127a4565b80601f01602080910402602001604051908101604052809291908181526020018280546106b2906127a4565b80156106ff5780601f106106d4576101008083540402835291602001916106ff565b820191906000526020600020905b8154815290600101906020018083116106e257829003601f168201915b5050505050905090565b600160008673ffffffffffffffffffffffffffffffffffffffff1673ffffffffffffffffffffffffffffffffffffffff168152602001908152602001600020600085815260200190815260200160002060009054906101000a900460ff16156040518060400160405280601e81526020017f454950333030393a20617574686f72697a6174696f6e20697320757365640000815250906107df576040517f08c379a00000000000000000000000000000000000000000000000000000000081526004016107d691906124ab565b60405180910390fd5b5060007f158b0a9edf7a828aad02f63cd515c68ef2f50ba807396f6d12842833a15974298686604051602001610817939291906123dc565b60405160208183030381529060405290508573ffffffffffffffffffffffffffffffffffffffff1661084e6000548686868661146c565b73ffffffffffffffffffffffffffffffffffffffff16146040518060400160405280601a81526020017f454950333030393a20696e76616c6964207369676e6174757265000000000000815250906108dc576040517f08c379a00000000000000000000000000000000000000000000000000000000081526004016108d391906124ab565b60405180910390fd5b5060018060008873ffffffffffffffffffffffffffffffffffffffff1673ffffffffffffffffffffffffffffffffffffffff168152602001908152602001600020600087815260200190815260200160002060006101000a81548160ff021916908315150217905550848673ffffffffffffffffffffffffffffffffffffffff167f1cdd46ff242716cdaa72d159d339a485b3438398348d68f09d7c8c0a59353d8160405160405180910390a3505050505050565b6000600360008373ffffffffffffffffffffffffffffffffffffffff1673ffffffffffffffffffffffffffffffffffffffff168152602001908152602001600020549050919050565b6000600260008373ffffffffffffffffffffffffffffffffffffffff1673ffffffffffffffffffffffffffffffffffffffff168152602001908152602001600020549050919050565b7fd099cc98ef71107a616c4f0f941f04c322d8e254fe26b3c6668db87aae413de881565b606060088054610a56906127a4565b80601f0160208091040260200160405190810160405280929190818152602001828054610a82906127a4565b8015610acf5780601f10610aa457610100808354040283529160200191610acf565b820191906000526020600020905b815481529060010190602001808311610ab257829003601f168201915b5050505050905090565b7f7c7c6cdb67a18743f49ec6fa9b35f50d52ed05cbed4cc592e13b44501c1a226781565b6000610b0a3384846114b9565b6001905092915050565b6000610b213384846110eb565b6001905092915050565b42841015610b6e576040517f08c379a0000000000000000000000000000000000000000000000000000000008152600401610b65906125ad565b60405180910390fd5b60007f6e71edae12b1b97f4d1f60370fef10105fa2faae0126114a169c64845d6126c960001b888888600260008d73ffffffffffffffffffffffffffffffffffffffff1673ffffffffffffffffffffffffffffffffffffffff1681526020019081526020016000206000815480929190610be7906127d6565b9190505589604051602001610c019695949392919061230c565b60405160208183030381529060405290508773ffffffffffffffffffffffffffffffffffffffff16610c386000548686868661146c565b73ffffffffffffffffffffffffffffffffffffffff1614610c8e576040517f08c379a0000000000000000000000000000000000000000000000000000000008152600401610c859061256d565b60405180910390fd5b610c99888888610f20565b5050505050505050565b7f158b0a9edf7a828aad02f63cd515c68ef2f50ba807396f6d12842833a159742981565b6000600460008473ffffffffffffffffffffffffffffffffffffffff1673ffffffffffffffffffffffffffffffffffffffff16815260200190815260200160002060008373ffffffffffffffffffffffffffffffffffffffff1673ffffffffffffffffffffffffffffffffffffffff16815260200190815260200160002054905092915050565b610d807f7c7c6cdb67a18743f49ec6fa9b35f50d52ed05cbed4cc592e13b44501c1a22678a8a8a8a8a8a8a8a8a611571565b505050505050505050565b6000600160008473ffffffffffffffffffffffffffffffffffffffff1673ffffffffffffffffffffffffffffffffffffffff168152602001908152602001600020600083815260200190815260200160002060009054906101000a900460ff16905092915050565b3373ffffffffffffffffffffffffffffffffffffffff168873ffffffffffffffffffffffffffffffffffffffff1614610e61576040517f08c379a0000000000000000000000000000000000000000000000000000000008152600401610e589061254d565b60405180910390fd5b610e937fd099cc98ef71107a616c4f0f941f04c322d8e254fe26b3c6668db87aae413de88a8a8a8a8a8a8a8a8a611571565b505050505050505050565b6000804690507f8b73c3c69bb8fe3d512ecc4cf759cc79239f7b179b0ffacaa9a75d522b39400f848051906020012084805190602001208330604051602001610eeb959493929190612458565b6040516020818303038152906040528051906020012091505092915050565b60008183610f1891906126aa565b905092915050565b600073ffffffffffffffffffffffffffffffffffffffff168373ffffffffffffffffffffffffffffffffffffffff161415610f90576040517f08c379a0000000000000000000000000000000000000000000000000000000008152600401610f87906125ed565b60405180910390fd5b600073ffffffffffffffffffffffffffffffffffffffff168273ffffffffffffffffffffffffffffffffffffffff161415611000576040517f08c379a0000000000000000000000000000000000000000000000000000000008152600401610ff79061250d565b60405180910390fd5b80600460008573ffffffffffffffffffffffffffffffffffffffff1673ffffffffffffffffffffffffffffffffffffffff16815260200190815260200160002060008473ffffffffffffffffffffffffffffffffffffffff1673ffffffffffffffffffffffffffffffffffffffff168152602001908152602001600020819055508173ffffffffffffffffffffffffffffffffffffffff168373ffffffffffffffffffffffffffffffffffffffff167f8c5be1e5ebec7d5bd14f71427d1e84f3dd0314c0f7b2291e5b200ac8c7c3b925836040516110de919061264d565b60405180910390a3505050565b600073ffffffffffffffffffffffffffffffffffffffff168373ffffffffffffffffffffffffffffffffffffffff16141561115b576040517f08c379a0000000000000000000000000000000000000000000000000000000008152600401611152906125cd565b60405180910390fd5b600073ffffffffffffffffffffffffffffffffffffffff168273ffffffffffffffffffffffffffffffffffffffff1614156111cb576040517f08c379a00000000000000000000000000000000000000000000000000000000081526004016111c2906124cd565b60405180910390fd5b611237816040518060600160405280602681526020016128f560269139600360008773ffffffffffffffffffffffffffffffffffffffff1673ffffffffffffffffffffffffffffffffffffffff168152602001908152602001600020546113799092919063ffffffff16565b600360008573ffffffffffffffffffffffffffffffffffffffff1673ffffffffffffffffffffffffffffffffffffffff168152602001908152602001600020819055506112cc81600360008573ffffffffffffffffffffffffffffffffffffffff1673ffffffffffffffffffffffffffffffffffffffff16815260200190815260200160002054610f0a90919063ffffffff16565b600360008473ffffffffffffffffffffffffffffffffffffffff1673ffffffffffffffffffffffffffffffffffffffff168152602001908152602001600020819055508173ffffffffffffffffffffffffffffffffffffffff168373ffffffffffffffffffffffffffffffffffffffff167fddf252ad1be2c89b69c2b068fc378daa952ba7f163c4a11628f55a4df523b3ef8360405161136c919061264d565b60405180910390a3505050565b60008383111582906113c1576040517f08c379a00000000000000000000000000000000000000000000000000000000081526004016113b891906124ab565b60405180910390fd5b5082840390509392505050565b611467838361146284600460008973ffffffffffffffffffffffffffffffffffffffff1673ffffffffffffffffffffffffffffffffffffffff16815260200190815260200160002060008873ffffffffffffffffffffffffffffffffffffffff1673ffffffffffffffffffffffffffffffffffffffff16815260200190815260200160002054610f0a90919063ffffffff16565b610f20565b505050565b60008086838051906020012060405160200161148992919061229f565b6040516020818303038152906040528051906020012090506114ad81878787611875565b91505095945050505050565b61156c83836115678460405180606001604052806025815260200161294360259139600460008a73ffffffffffffffffffffffffffffffffffffffff1673ffffffffffffffffffffffffffffffffffffffff16815260200190815260200160002060008973ffffffffffffffffffffffffffffffffffffffff1673ffffffffffffffffffffffffffffffffffffffff168152602001908152602001600020546113799092919063ffffffff16565b610f20565b505050565b8542116115b3576040517f08c379a00000000000000000000000000000000000000000000000000000000081526004016115aa9061252d565b60405180910390fd5b8442106115f5576040517f08c379a00000000000000000000000000000000000000000000000000000000081526004016115ec9061262d565b60405180910390fd5b600160008a73ffffffffffffffffffffffffffffffffffffffff1673ffffffffffffffffffffffffffffffffffffffff168152602001908152602001600020600085815260200190815260200160002060009054906101000a900460ff16156040518060400160405280601e81526020017f454950333030393a20617574686f72697a6174696f6e20697320757365640000815250906116cb576040517f08c379a00000000000000000000000000000000000000000000000000000000081526004016116c291906124ab565b60405180910390fd5b5060008a8a8a8a8a8a8a6040516020016116eb979695949392919061236d565b60405160208183030381529060405290508973ffffffffffffffffffffffffffffffffffffffff166117226000548686868661146c565b73ffffffffffffffffffffffffffffffffffffffff16146040518060400160405280601a81526020017f454950333030393a20696e76616c6964207369676e6174757265000000000000815250906117b0576040517f08c379a00000000000000000000000000000000000000000000000000000000081526004016117a791906124ab565b60405180910390fd5b5060018060008c73ffffffffffffffffffffffffffffffffffffffff1673ffffffffffffffffffffffffffffffffffffffff168152602001908152602001600020600087815260200190815260200160002060006101000a81548160ff021916908315150217905550848a73ffffffffffffffffffffffffffffffffffffffff167f98de503528ee59b575ef0c0a2576a82497bfc029a5685b209e9ec333479b10a560405160405180910390a36118688a8a8a6110eb565b5050505050505050505050565b60007f7fffffffffffffffffffffffffffffff5d576e7357a4501ddfe92f46681b20a08260001c11156118dd576040517f08c379a00000000000000000000000000000000000000000000000000000000081526004016118d49061260d565b60405180910390fd5b601b8460ff16141580156118f55750601c8460ff1614155b15611935576040517f08c379a000000000000000000000000000000000000000000000000000000000815260040161192c906124ed565b60405180910390fd5b60006001868686866040516000815260200160405260405161195a9493929190612413565b6020604051602081039080840390855afa15801561197c573d6000803e3d6000fd5b505050602060405103519050600073ffffffffffffffffffffffffffffffffffffffff168173ffffffffffffffffffffffffffffffffffffffff1614156119f8576040517f08c379a00000000000000000000000000000000000000000000000000000000081526004016119ef9061258d565b60405180910390fd5b80915050949350505050565b600081359050611a1381612898565b92915050565b600081359050611a28816128af565b92915050565b600081359050611a3d816128c6565b92915050565b600081359050611a52816128dd565b92915050565b600060208284031215611a6a57600080fd5b6000611a7884828501611a04565b91505092915050565b60008060408385031215611a9457600080fd5b6000611aa285828601611a04565b9250506020611ab385828601611a04565b9150509250929050565b600080600060608486031215611ad257600080fd5b6000611ae086828701611a04565b9350506020611af186828701611a04565b9250506040611b0286828701611a2e565b9150509250925092565b60008060008060008060008060006101208a8c031215611b2b57600080fd5b6000611b398c828d01611a04565b9950506020611b4a8c828d01611a04565b9850506040611b5b8c828d01611a2e565b9750506060611b6c8c828d01611a2e565b9650506080611b7d8c828d01611a2e565b95505060a0611b8e8c828d01611a19565b94505060c0611b9f8c828d01611a43565b93505060e0611bb08c828d01611a19565b925050610100611bc28c828d01611a19565b9150509295985092959850929598565b600080600080600080600060e0888a031215611bed57600080fd5b6000611bfb8a828b01611a04565b9750506020611c0c8a828b01611a04565b9650506040611c1d8a828b01611a2e565b9550506060611c2e8a828b01611a2e565b9450506080611c3f8a828b01611a43565b93505060a0611c508a828b01611a19565b92505060c0611c618a828b01611a19565b91505092959891949750929550565b60008060408385031215611c8357600080fd5b6000611c9185828601611a04565b9250506020611ca285828601611a19565b9150509250929050565b600080600080600060a08688031215611cc457600080fd5b6000611cd288828901611a04565b9550506020611ce388828901611a19565b9450506040611cf488828901611a43565b9350506060611d0588828901611a19565b9250506080611d1688828901611a19565b9150509295509295909350565b60008060408385031215611d3657600080fd5b6000611d4485828601611a04565b9250506020611d5585828601611a2e565b9150509250929050565b611d6881612700565b82525050565b611d7781612712565b82525050565b611d868161271e565b82525050565b611d9d611d988261271e565b61281f565b82525050565b611dac8161275f565b82525050565b6000611dbd82612683565b611dc7818561268e565b9350611dd7818560208601612771565b611de081612887565b840191505092915050565b6000611df860238361268e565b91507f45524332303a207472616e7366657220746f20746865207a65726f206164647260008301527f65737300000000000000000000000000000000000000000000000000000000006020830152604082019050919050565b6000611e5e60268361268e565b91507f45435265636f7665723a20696e76616c6964207369676e61747572652027762760008301527f2076616c756500000000000000000000000000000000000000000000000000006020830152604082019050919050565b6000611ec460228361268e565b91507f45524332303a20617070726f766520746f20746865207a65726f20616464726560008301527f73730000000000000000000000000000000000000000000000000000000000006020830152604082019050919050565b6000611f2a60278361268e565b91507f454950333030393a20617574686f72697a6174696f6e206973206e6f7420796560008301527f742076616c6964000000000000000000000000000000000000000000000000006020830152604082019050919050565b6000611f9060028361269f565b91507f19010000000000000000000000000000000000000000000000000000000000006000830152600282019050919050565b6000611fd060218361268e565b91507f454950333030393a2063616c6c6572206d75737420626520746865207061796560008301527f65000000000000000000000000000000000000000000000000000000000000006020830152604082019050919050565b6000612036601a8361268e565b91507f454950323631323a20696e76616c6964207369676e61747572650000000000006000830152602082019050919050565b6000612076601c8361268e565b91507f45435265636f7665723a20696e76616c6964207369676e6174757265000000006000830152602082019050919050565b60006120b6601a8361268e565b91507f454950323631323a207065726d697420697320657870697265640000000000006000830152602082019050919050565b60006120f660258361268e565b91507f45524332303a207472616e736665722066726f6d20746865207a65726f20616460008301527f64726573730000000000000000000000000000000000000000000000000000006020830152604082019050919050565b600061215c60248361268e565b91507f45524332303a20617070726f76652066726f6d20746865207a65726f2061646460008301527f72657373000000000000000000000000000000000000000000000000000000006020830152604082019050919050565b60006121c260268361268e565b91507f45435265636f7665723a20696e76616c6964207369676e61747572652027732760008301527f2076616c756500000000000000000000000000000000000000000000000000006020830152604082019050919050565b600061222860218361268e565b91507f454950333030393a20617574686f72697a6174696f6e2069732065787069726560008301527f64000000000000000000000000000000000000000000000000000000000000006020830152604082019050919050565b61228a81612748565b82525050565b61229981612752565b82525050565b60006122aa82611f83565b91506122b68285611d8c565b6020820191506122c68284611d8c565b6020820191508190509392505050565b60006020820190506122eb6000830184611d6e565b92915050565b60006020820190506123066000830184611d7d565b92915050565b600060c0820190506123216000830189611d7d565b61232e6020830188611d5f565b61233b6040830187611d5f565b6123486060830186612281565b6123556080830185612281565b61236260a0830184612281565b979650505050505050565b600060e082019050612382600083018a611d7d565b61238f6020830189611d5f565b61239c6040830188611d5f565b6123a96060830187612281565b6123b66080830186612281565b6123c360a0830185612281565b6123d060c0830184611d7d565b98975050505050505050565b60006060820190506123f16000830186611d7d565b6123fe6020830185611d5f565b61240b6040830184611d7d565b949350505050565b60006080820190506124286000830187611d7d565b6124356020830186612290565b6124426040830185611d7d565b61244f6060830184611d7d565b95945050505050565b600060a08201905061246d6000830188611da3565b61247a6020830187611d7d565b6124876040830186611d7d565b6124946060830185612281565b6124a16080830184611d5f565b9695505050505050565b600060208201905081810360008301526124c58184611db2565b905092915050565b600060208201905081810360008301526124e681611deb565b9050919050565b6000602082019050818103600083015261250681611e51565b9050919050565b6000602082019050818103600083015261252681611eb7565b9050919050565b6000602082019050818103600083015261254681611f1d565b9050919050565b6000602082019050818103600083015261256681611fc3565b9050919050565b6000602082019050818103600083015261258681612029565b9050919050565b600060208201905081810360008301526125a681612069565b9050919050565b600060208201905081810360008301526125c6816120a9565b9050919050565b600060208201905081810360008301526125e6816120e9565b9050919050565b600060208201905081810360008301526126068161214f565b9050919050565b60006020820190508181036000830152612626816121b5565b9050919050565b600060208201905081810360008301526126468161221b565b9050919050565b60006020820190506126626000830184612281565b92915050565b600060208201905061267d6000830184612290565b92915050565b600081519050919050565b600082825260208201905092915050565b600081905092915050565b60006126b582612748565b91506126c083612748565b9250827fffffffffffffffffffffffffffffffffffffffffffffffffffffffffffffffff038211156126f5576126f4612829565b5b828201905092915050565b600061270b82612728565b9050919050565b60008115159050919050565b6000819050919050565b600073ffffffffffffffffffffffffffffffffffffffff82169050919050565b6000819050919050565b600060ff82169050919050565b600061276a82612748565b9050919050565b60005b8381101561278f578082015181840152602081019050612774565b8381111561279e576000848401525b50505050565b600060028204905060018216806127bc57607f821691505b602082108114156127d0576127cf612858565b5b50919050565b60006127e182612748565b91507fffffffffffffffffffffffffffffffffffffffffffffffffffffffffffffffff82141561281457612813612829565b5b600182019050919050565b6000819050919050565b7f4e487b7100000000000000000000000000000000000000000000000000000000600052601160045260246000fd5b7f4e487b7100000000000000000000000000000000000000000000000000000000600052602260045260246000fd5b6000601f19601f8301169050919050565b6128a181612700565b81146128ac57600080fd5b50565b6128b88161271e565b81146128c357600080fd5b50565b6128cf81612748565b81146128da57600080fd5b50565b6128e681612752565b81146128f157600080fd5b5056fe45524332303a207472616e7366657220616d6f756e7420657863656564732062616c616e636545524332303a207472616e7366657220616d6f756e74206578636565647320616c6c6f77616e636545524332303a2064656372656173656420616c6c6f77616e63652062656c6f77207a65726fa2646970667358221220ace2ef00de92dee80ffb43f4bfc84527c3411e68ce982a40a3d182071b481a6364736f6c63430008000033",
  "immutableReferences": {},
  "source": "// SPDX-License-Identifier: MIT\n// ERC20 adapted from: https://github.com/OpenZeppelin/openzeppelin-contracts/blob/master/contracts/token/ERC20/ERC20.sol\n\npragma solidity >=0.4.22 <0.9.0;\n\nimport {SafeMath} from \"@openzeppelin/contracts/utils/math/SafeMath.sol\";\nimport {Address} from \"@openzeppelin/contracts/utils/Address.sol\";\n\nimport {IERC20Internal} from \"./lib/IERC20Internal.sol\";\nimport {EIP3009} from \"./lib/EIP3009.sol\";\nimport {EIP2612} from \"./lib/EIP2612.sol\";\nimport {EIP712} from \"./lib/EIP712.sol\";\n\ncontract Token is IERC20Internal, EIP3009, EIP2612 {\n    using SafeMath for uint256;\n    using Address for address;\n\n    mapping(address => uint256) internal _balances;\n    mapping(address => mapping(address => uint256)) internal _allowances;\n\n    uint256 internal _totalSupply;\n    string internal _name;\n    string internal _version;\n    string internal _symbol;\n    uint8 internal _decimals;\n\n    event Transfer(address indexed from, address indexed to, uint256 value);\n    event Approval(\n        address indexed owner,\n        address indexed spender,\n        uint256 value\n    );\n\n    constructor(\n        string memory tokenName,\n        string memory tokenVersion,\n        string memory tokenSymbol,\n        uint8 tokenDecimals,\n        uint256 tokenTotalSupply\n    ) public {\n        _name = tokenName;\n        _version = tokenVersion;\n        _symbol = tokenSymbol;\n        _decimals = tokenDecimals;\n\n        DOMAIN_SEPARATOR = EIP712.makeDomainSeparator(tokenName, tokenVersion);\n\n        _mint(msg.sender, tokenTotalSupply);\n    }\n\n    /**\n     * @notice Token name\n     * @return Name\n     */\n    function name() external view returns (string memory) {\n        return _name;\n    }\n\n    /**\n     * @notice Token version\n     * @return Version\n     */\n    function version() external view returns (string memory) {\n        return _version;\n    }\n\n    /**\n     * @notice Token symbol\n     * @return Symbol\n     */\n    function symbol() external view returns (string memory) {\n        return _symbol;\n    }\n\n    /**\n     * @notice Number of decimal places\n     * @return Decimals\n     */\n    function decimals() external view returns (uint8) {\n        return _decimals;\n    }\n\n    /**\n     * @notice Total amount of tokens in circulation\n     * @return Total supply\n     */\n    function totalSupply() external view returns (uint256) {\n        return _totalSupply;\n    }\n\n    /**\n     * @notice Get the balance of an account\n     * @param account The account\n     * @return Balance\n     */\n    function balanceOf(address account) external view returns (uint256) {\n        return _balances[account];\n    }\n\n    /**\n     * @notice Amount of remaining tokens spender is allowed to transfer on\n     * behalf of the token owner\n     * @param owner     Token owner's address\n     * @param spender   Spender's address\n     * @return Allowance amount\n     */\n    function allowance(address owner, address spender)\n        external\n        view\n        returns (uint256)\n    {\n        return _allowances[owner][spender];\n    }\n\n    /**\n     * @notice Set spender's allowance over the caller's tokens to be a given\n     * value\n     * @param spender   Spender's address\n     * @param amount    Allowance amount\n     * @return True if successful\n     */\n    function approve(address spender, uint256 amount) external returns (bool) {\n        _approve(msg.sender, spender, amount);\n        return true;\n    }\n\n    /**\n     * @notice Transfer tokens by spending allowance\n     * @param sender    Payer's address\n     * @param recipient Payee's address\n     * @param amount    Transfer amount\n     * @return True if successful\n     */\n    function transferFrom(\n        address sender,\n        address recipient,\n        uint256 amount\n    ) external returns (bool) {\n        _transfer(sender, recipient, amount);\n        _approve(\n            sender,\n            msg.sender,\n            _allowances[sender][msg.sender].sub(\n                amount,\n                \"ERC20: transfer amount exceeds allowance\"\n            )\n        );\n        return true;\n    }\n\n    /**\n     * @notice Transfer tokens from the caller\n     * @param recipient Payee's address\n     * @param amount    Transfer amount\n     * @return True if successful\n     */\n    function transfer(address recipient, uint256 amount)\n        external\n        returns (bool)\n    {\n        _transfer(msg.sender, recipient, amount);\n        return true;\n    }\n\n    /**\n     * @notice Increase the allowance by a given amount\n     * @param spender       Spender's address\n     * @param addedValue    Amount of increase in allowance\n     * @return True if successful\n     */\n    function increaseAllowance(address spender, uint256 addedValue)\n        external\n        returns (bool)\n    {\n        _increaseAllowance(msg.sender, spender, addedValue);\n        return true;\n    }\n\n    /**\n     * @notice Decrease the allowance by a given amount\n     * @param spender           Spender's address\n     * @param subtractedValue   Amount of decrease in allowance\n     * @return True if successful\n     */\n    function decreaseAllowance(address spender, uint256 subtractedValue)\n        external\n        returns (bool)\n    {\n        _decreaseAllowance(msg.sender, spender, subtractedValue);\n        return true;\n    }\n\n    function _transfer(\n        address sender,\n        address recipient,\n        uint256 amount\n    ) internal override {\n        require(sender != address(0), \"ERC20: transfer from the zero address\");\n        require(recipient != address(0), \"ERC20: transfer to the zero address\");\n\n        _balances[sender] = _balances[sender].sub(\n            amount,\n            \"ERC20: transfer amount exceeds balance\"\n        );\n        _balances[recipient] = _balances[recipient].add(amount);\n        emit Transfer(sender, recipient, amount);\n    }\n\n    function _mint(address account, uint256 amount) internal override {\n        require(account != address(0), \"ERC20: mint to the zero address\");\n\n        _totalSupply = _totalSupply.add(amount);\n        _balances[account] = _balances[account].add(amount);\n        emit Transfer(address(0), account, amount);\n    }\n\n    function _burn(address account, uint256 amount) internal override {\n        require(account != address(0), \"ERC20: burn from the zero address\");\n\n        _balances[account] = _balances[account].sub(\n            amount,\n            \"ERC20: burn amount exceeds balance\"\n        );\n        _totalSupply = _totalSupply.sub(amount);\n        emit Transfer(account, address(0), amount);\n    }\n\n    function _approve(\n        address owner,\n        address spender,\n        uint256 amount\n    ) internal override {\n        require(owner != address(0), \"ERC20: approve from the zero address\");\n        require(spender != address(0), \"ERC20: approve to the zero address\");\n\n        _allowances[owner][spender] = amount;\n        emit Approval(owner, spender, amount);\n    }\n\n    function _increaseAllowance(\n        address owner,\n        address spender,\n        uint256 addedValue\n    ) internal override {\n        _approve(owner, spender, _allowances[owner][spender].add(addedValue));\n    }\n\n    function _decreaseAllowance(\n        address owner,\n        address spender,\n        uint256 subtractedValue\n    ) internal override {\n        _approve(\n            owner,\n            spender,\n            _allowances[owner][spender].sub(\n                subtractedValue,\n                \"ERC20: decreased allowance below zero\"\n            )\n        );\n    }\n}\n",
  "sourcePath": "/Users/koichi/dev/hackCoin/token/contracts/Token.sol",
  "compiler": {
    "name": "solc",
    "version": "0.8.0+commit.c7dfd78e.Emscripten.clang"
  },
  "schemaVersion": "3.4.3",
  "updatedAt": "2022-01-20T16:56:29.943Z",
  "devdoc": {
    "kind": "dev",
    "methods": {
      "allowance(address,address)": {
        "params": {
          "owner": "Token owner's address",
          "spender": "Spender's address"
        },
        "returns": {
          "_0": "Allowance amount"
        }
      },
      "approve(address,uint256)": {
        "params": {
          "amount": "Allowance amount",
          "spender": "Spender's address"
        },
        "returns": {
          "_0": "True if successful"
        }
      },
      "authorizationState(address,bytes32)": {
        "details": "Nonces are randomly generated 32-byte data unique to the authorizer's address",
        "params": {
          "authorizer": "Authorizer's address",
          "nonce": "Nonce of the authorization"
        },
        "returns": {
          "_0": "True if the nonce is used"
        }
      },
      "balanceOf(address)": {
        "params": {
          "account": "The account"
        },
        "returns": {
          "_0": "Balance"
        }
      },
      "cancelAuthorization(address,bytes32,uint8,bytes32,bytes32)": {
        "params": {
          "authorizer": "Authorizer's address",
          "nonce": "Nonce of the authorization",
          "r": "r of the signature",
          "s": "s of the signature",
          "v": "v of the signature"
        }
      },
      "decimals()": {
        "returns": {
          "_0": "Decimals"
        }
      },
      "decreaseAllowance(address,uint256)": {
        "params": {
          "spender": "Spender's address",
          "subtractedValue": "Amount of decrease in allowance"
        },
        "returns": {
          "_0": "True if successful"
        }
      },
      "increaseAllowance(address,uint256)": {
        "params": {
          "addedValue": "Amount of increase in allowance",
          "spender": "Spender's address"
        },
        "returns": {
          "_0": "True if successful"
        }
      },
      "name()": {
        "returns": {
          "_0": "Name"
        }
      },
      "nonces(address)": {
        "params": {
          "owner": "Token owner's address"
        },
        "returns": {
          "_0": "Next nonce"
        }
      },
      "permit(address,address,uint256,uint256,uint8,bytes32,bytes32)": {
        "params": {
          "deadline": "The time at which this expires (unix time)",
          "owner": "Token owner's address (Authorizer)",
          "r": "r of the signature",
          "s": "s of the signature",
          "spender": "Spender's address",
          "v": "v of the signature",
          "value": "Amount of allowance"
        }
      },
      "receiveWithAuthorization(address,address,uint256,uint256,uint256,bytes32,uint8,bytes32,bytes32)": {
        "details": "This has an additional check to ensure that the payee's address matches the caller of this function to prevent front-running attacks. (See security considerations)",
        "params": {
          "from": "Payer's address (Authorizer)",
          "nonce": "Unique nonce",
          "r": "r of the signature",
          "s": "s of the signature",
          "to": "Payee's address",
          "v": "v of the signature",
          "validAfter": "The time after which this is valid (unix time)",
          "validBefore": "The time before which this is valid (unix time)",
          "value": "Amount to be transferred"
        }
      },
      "symbol()": {
        "returns": {
          "_0": "Symbol"
        }
      },
      "totalSupply()": {
        "returns": {
          "_0": "Total supply"
        }
      },
      "transfer(address,uint256)": {
        "params": {
          "amount": "Transfer amount",
          "recipient": "Payee's address"
        },
        "returns": {
          "_0": "True if successful"
        }
      },
      "transferFrom(address,address,uint256)": {
        "params": {
          "amount": "Transfer amount",
          "recipient": "Payee's address",
          "sender": "Payer's address"
        },
        "returns": {
          "_0": "True if successful"
        }
      },
      "transferWithAuthorization(address,address,uint256,uint256,uint256,bytes32,uint8,bytes32,bytes32)": {
        "params": {
          "from": "Payer's address (Authorizer)",
          "nonce": "Unique nonce",
          "r": "r of the signature",
          "s": "s of the signature",
          "to": "Payee's address",
          "v": "v of the signature",
          "validAfter": "The time after which this is valid (unix time)",
          "validBefore": "The time before which this is valid (unix time)",
          "value": "Amount to be transferred"
        }
      },
      "version()": {
        "returns": {
          "_0": "Version"
        }
      }
    },
    "version": 1
  },
  "userdoc": {
    "kind": "user",
    "methods": {
      "allowance(address,address)": {
        "notice": "Amount of remaining tokens spender is allowed to transfer on behalf of the token owner"
      },
      "approve(address,uint256)": {
        "notice": "Set spender's allowance over the caller's tokens to be a given value"
      },
      "authorizationState(address,bytes32)": {
        "notice": "Returns the state of an authorization"
      },
      "balanceOf(address)": {
        "notice": "Get the balance of an account"
      },
      "cancelAuthorization(address,bytes32,uint8,bytes32,bytes32)": {
        "notice": "Attempt to cancel an authorization"
      },
      "decimals()": {
        "notice": "Number of decimal places"
      },
      "decreaseAllowance(address,uint256)": {
        "notice": "Decrease the allowance by a given amount"
      },
      "increaseAllowance(address,uint256)": {
        "notice": "Increase the allowance by a given amount"
      },
      "name()": {
        "notice": "Token name"
      },
      "nonces(address)": {
        "notice": "Nonces for permit"
      },
      "permit(address,address,uint256,uint256,uint8,bytes32,bytes32)": {
        "notice": "update allowance with a signed permit"
      },
      "receiveWithAuthorization(address,address,uint256,uint256,uint256,bytes32,uint8,bytes32,bytes32)": {
        "notice": "Receive a transfer with a signed authorization from the payer"
      },
      "symbol()": {
        "notice": "Token symbol"
      },
      "totalSupply()": {
        "notice": "Total amount of tokens in circulation"
      },
      "transfer(address,uint256)": {
        "notice": "Transfer tokens from the caller"
      },
      "transferFrom(address,address,uint256)": {
        "notice": "Transfer tokens by spending allowance"
      },
      "transferWithAuthorization(address,address,uint256,uint256,uint256,bytes32,uint8,bytes32,bytes32)": {
        "notice": "Execute a transfer with a signed authorization"
      },
      "version()": {
        "notice": "Token version"
      }
    },
    "version": 1
  }
}