{
	"data": {
		"bytecode": {
			"linkReferences": {},
			"object": "60dc610052600b82828239805160001a607314610045577f4e487b7100000000000000000000000000000000000000000000000000000000600052600060045260246000fd5b30600052607381538281f3fe730000000000000000000000000000000000000000301460806040526004361060335760003560e01c8063c7977be7146038575b600080fd5b603e6052565b604051604991906083565b60405180910390f35b7f8b73c3c69bb8fe3d512ecc4cf759cc79239f7b179b0ffacaa9a75d522b39400f81565b607d81609c565b82525050565b6000602082019050609660008301846076565b92915050565b600081905091905056fea2646970667358221220ec011eea1722211152fc320d4f21d25d323a1fc73d655eb553cdb885944f1f8364736f6c63430008070033",
			"opcodes": "PUSH1 0xDC PUSH2 0x52 PUSH1 0xB DUP3 DUP3 DUP3 CODECOPY DUP1 MLOAD PUSH1 0x0 BYTE PUSH1 0x73 EQ PUSH2 0x45 JUMPI PUSH32 0x4E487B7100000000000000000000000000000000000000000000000000000000 PUSH1 0x0 MSTORE PUSH1 0x0 PUSH1 0x4 MSTORE PUSH1 0x24 PUSH1 0x0 REVERT JUMPDEST ADDRESS PUSH1 0x0 MSTORE PUSH1 0x73 DUP2 MSTORE8 DUP3 DUP2 RETURN INVALID PUSH20 0x0 ADDRESS EQ PUSH1 0x80 PUSH1 0x40 MSTORE PUSH1 0x4 CALLDATASIZE LT PUSH1 0x33 JUMPI PUSH1 0x0 CALLDATALOAD PUSH1 0xE0 SHR DUP1 PUSH4 0xC7977BE7 EQ PUSH1 0x38 JUMPI JUMPDEST PUSH1 0x0 DUP1 REVERT JUMPDEST PUSH1 0x3E PUSH1 0x52 JUMP JUMPDEST PUSH1 0x40 MLOAD PUSH1 0x49 SWAP2 SWAP1 PUSH1 0x83 JUMP JUMPDEST PUSH1 0x40 MLOAD DUP1 SWAP2 SUB SWAP1 RETURN JUMPDEST PUSH32 0x8B73C3C69BB8FE3D512ECC4CF759CC79239F7B179B0FFACAA9A75D522B39400F DUP2 JUMP JUMPDEST PUSH1 0x7D DUP2 PUSH1 0x9C JUMP JUMPDEST DUP3 MSTORE POP POP JUMP JUMPDEST PUSH1 0x0 PUSH1 0x20 DUP3 ADD SWAP1 POP PUSH1 0x96 PUSH1 0x0 DUP4 ADD DUP5 PUSH1 0x76 JUMP JUMPDEST SWAP3 SWAP2 POP POP JUMP JUMPDEST PUSH1 0x0 DUP2 SWAP1 POP SWAP2 SWAP1 POP JUMP INVALID LOG2 PUSH5 0x6970667358 0x22 SLT KECCAK256 0xEC ADD 0x1E 0xEA OR 0x22 0x21 GT MSTORE 0xFC ORIGIN 0xD 0x4F 0x21 0xD2 0x5D ORIGIN GASPRICE 0x1F 0xC7 RETURNDATASIZE PUSH6 0x5EB553CDB885 SWAP5 0x4F 0x1F DUP4 PUSH5 0x736F6C6343 STOP ADDMOD SMOD STOP CALLER "
		},
		"gasEstimates": {
			"creation": {
				"codeDepositCost": "44000",
				"executionCost": "121",
				"totalCost": "44121"
			},
			"external": {
				"EIP712_DOMAIN_TYPEHASH()": "291"
			},
			"internal": {
				"makeDomainSeparator(string memory,string memory)": "infinite",
				"recover(bytes32,uint8,bytes32,bytes32,bytes memory)": "infinite"
			}
		},
		"methodIdentifiers": {
			"EIP712_DOMAIN_TYPEHASH()": "c7977be7"
		}
	},
	"abi": [
		{
			"inputs": [],
			"name": "EIP712_DOMAIN_TYPEHASH",
			"outputs": [
				{
					"internalType": "bytes32",
					"name": "",
					"type": "bytes32"
				}
			],
			"stateMutability": "view",
			"type": "function"
		}
	]
}